S01C0000456D6265646465645F47726F757050726F6A30312E7372656396
S11300000C942A000C9434000C9434000C943400A6
S11300100C9434000C9434000C9434000C9434008C
S11300200C9434000C9434000C9434000C9434007C
S11300300C9434000C9434000C9434000C9434006C
S11300400C9434000C9434000C9434000C9434005C
S11300500C94340011241FBECFE5D8E0DEBFCDBF21
S11300600E9436000C9458000C9400008FEF87BB5C
S113007018BA88B38D7F88BB88B3816088BB2FEFA3
S113008089E698E1215080409040E1F700C00000EB
S113009088B38E7F88BB88B3826088BB2FEF89E6E4
S11300A098E1215080409040E1F700C00000E1CF8A
S10700B0F894FFCFEE
S9030000FC
